:020000021000EC
:108000000080002001830100498301004B830100AF
:108010000000000000000000000000000000000060
:108020000000000000000000000000004D8301007F
:1080300000000000000000004F8301005183010098
:1080400053830100538301005383010053830100D4
:10805000538301000000000053830100538301009B
:1080600053830100538301005383010053830100B4
:1080700053830100538301005383010053830100A4
:108080005383010053830100538301005383010094
:108090005383010053830100538301005383010084
:1080A0005383010053830100000000000000000022
:1080B00000000000000000000000000000000000C0
:1080C000054B0648033310B51B1A062B03D9044B86
:1080D000002B00D0984710BD6C2000206C200020A1
:1080E000000000000648074910B5091A8910CB0F97
:1080F0005918491003D0044B002B00D0984710BDED
:108100006C2000206C2000200000000010B5074CFF
:108110002378002B09D1FFF7D3FF054B002B02D0AA
:10812000044800E000BF0123237010BD6C20002034
:108130000000000008940100094B10B5002B03D08B
:108140000849094800E000BF08480368002B02D135
:10815000FFF7C8FF10BD064B002BF9D09847F7E793
:108160000000000070200020089401006C20002016
:1081700000000000164B002B00D1144B9D464022FE
:1081800092029A1A924600218B460F461348144ACF
:10819000121A00F01BF90F4B002B00D098470E4B22
:1081A000002B00D098470020002104000D000D484E
:1081B000002802D00C4800E000BF00F0E1F82000E9
:1081C000290000F05DF800F0C5F8C0460000080086
:1081D0000080002000000000000000006C20002053
:1081E0008C20002000000000000000001D4B1B78C8
:1081F000012B00D070471C4B1B681B07FAD1F022E3
:108200001A4B1B68134018D1194B1B6813421CD022
:10821000154B1B681B07EDD1F022144B1B68134054
:10822000402BE7D1124B1B681342E3D1C1238022BC
:108230000121DB00D205D150DCE7102B01D0302B1F
:10824000EAD10B4B1B681342E6D10A4A0A4B1A606B
:1082500080220A4B12021A60024B1B78012BD7D0E6
:10826000C8E7C046E00F00F0E40F00F0E80F00F0B0
:10827000EC0F00F0DFFF07C004050040186C004061
:10828000F8B50E4B4F46464699460123C0B4A0268A
:10829000A1279846F605FF0000244B4645461B5D86
:1082A000C8209D40F55100F00DF8054BC820F55051
:1082B000013400F007F8052CEED0EEE7FC93010046
:1082C0000C05000082B00190019B002B14D0019B93
:1082D0000A48013B01930138C046C046C046C0462B
:1082E000C046C046C046C046C046C046C046C0465E
:1082F000F1D1019B002BEAD102B07047E7030000E7
:1083000003210A4802680A430260094802680A43D6
:1083100002600849084A094B9B1A03DD043BC85810
:10832000D050FBDC06488047064800472405004043
:10833000540500401C950100002000206C20002006
:10834000ED81010075810100FEE7FEE7FEE7FEE733
:10835000FEE7FEE7084B10B50400002B02D0002119
:1083600000E000BF054B1868836A002B00D09847D7
:10837000200001F035F8C046000000000494010020
:108380000E4B70B500251E000D4CE41AA410A5423A
:1083900004D0AB00F35898470135F8E701F022F814
:1083A000084B00251E00084CE41AA410A54204D076
:1083B000AB00F35898470135F8E770BD6420002002
:1083C0006420002064200020682000200300821820
:1083D000934202D019700133FAE7704703685A00DC
:1083E00003D45B005B08C018704780221206134359
:1083F000F9E7C046F0B556464D465F464446F0B4F0
:10840000814683B09246002925D04B1E9B4600270B
:1084100001935B46FC18E30F1C194B466410E50002
:108420005E193000FFF7DAFF019B8046A3420BD0B4
:10843000280008304844FFF7D1FFD04506D801385E
:10844000504509D2671CE4E7504505D9A74202D040
:10845000631E9B46DDE70026300003B03CBC90461F
:108460009946A246AB46F0BD012809D0022805D0A6
:10847000002801D0002070470248FCE70248FAE7D4
:108480000248F8E7918B0100A98B01009D8B010048
:1084900030B5234B83B005008C1E002B2AD001A9D8
:1084A000200000E000BF002820D001992200FFF743
:1084B000A1FF041E1AD0FFF791FF6368A864012B87
:1084C00010D0201D002B1BDBFFF788FF0023E86482
:1084D0002B650368002B17DBFFF780FF2861002066
:1084E00003B030BD002305202B61F9E700230920EC
:1084F0002B61F5E70B480C49091AC9100191D5E722
:108500000123E8642B65E4E71801000FFFF7ACFFD7
:108510002861002801D10930E2E70020E0E7C046E9
:1085200000000000449401001C950100036810B590
:108530000400DA0705D49B070FD5483000F086FC0D
:1085400023685A070FD51A0714D5DB0604D4200078
:10855000D130FF3000F086FC10BD483000F072FCD6
:1085600023685A07EFD42000D03000F073FC236852
:108570001A07EAD420005130FF3000F06FFC236866
:10858000E3E7C04602680023002A00D083181800E1
:108590007047C046092070477047C04670B5040058
:1085A0000D0008E02B6C2A00636121000120236983
:1085B0009847082807D1296C2000FFF769FF002899
:1085C000F0D000F0A3FE0728FBD10020296CFFF7B4
:1085D000E3FF281D00F020FCF0B54F464646C0B42E
:1085E000C368334C9946A5448369170005000431DC
:1085F000402205A8984600F090FE002304AC216CB0
:1086000028000493FFF744FF39004B1E99410931BC
:1086100006000F00002E15D0A36B102163644346A3
:1086200039430193C9B200942B002A000120C847A6
:10863000002833D13000F5239B009D440CBC9046AC
:108640009946F0BDF022236C52006B6121007CA89A
:1086500000F063FE7CAA29002B69380098478A9BAA
:108660000600636403934346009401932A002B00A1
:1086700039000120C847002810D1F0227CA95200FF
:10868000200000F04AFE082E06D1216C2800FFF7DA
:10869000FFFE09270600BDE7072E01D00920CAE723
:1086A0000020216CFFF778FF05A800F0B5FBC0465D
:1086B0002CFCFFFF406C704770B5CB6BFAB00B64BD
:1086C00004000E004022043103A800F026FE01231E
:1086D0005B42029306E002AA210023699847051E27
:1086E000082D0AD1129B200019000193FFF7D0FE3C
:1086F0000028F0D009207AB070BD02A8FFF716FF5D
:10870000062DF7D131002000FFF748FF10B5826138
:10871000DA6BC1601A6419000022FFF75DFF10BD1B
:10872000436970B50B64C36804000D00002B04D0CE
:108730000122FFF751FF00F0E9FD0A002369010063
:1087400002209847072807D0082803D129002000D5
:10875000FFF724FF00F0DAFD0020296CFFF71CFF73
:10876000281D00F059FBC046C36810B5002B05D08A
:10877000CB6B00220B64FFF72FFF10BDFFF79CFFB0
:10878000FBE7C0467047C046836810B5002B02D097
:1087900001000120984710BD10B5012907D000291C
:1087A00007D003390224012901D9200010BD01247A
:1087B000FBE70224002BF8D10F2AF6D8920080188C
:1087C0004268029B00241A60EFE7C04600B585B0FE
:1087D00003AB0A00009300210023FFF7DDFF03989D
:1087E00005B000BD10B5012907D0002907D0033915
:1087F0000224012901D9200010BD0124FBE7022435
:10880000002BF8D10F2AF6D8029B92001B68801823
:1088100043600024EFE7C04600B585B003AB039288
:1088200000930A0000230021FFF7DCFF05B000BD24
:1088300070B51A4CD36BA544136406000D0019A83B
:10884000111D402200F069FD01235B42189314E0E2
:108850000C2118A802AAFFF7DFFF290018A8B047CB
:10886000002812D1069B18AA02A908300193984744
:10887000041E052C0AD0092807D0289B02A819003D
:108880000193FFF705FE0028E2D0092418A8FFF79E
:108890004DFE200090239B009D4470BDC0FDFFFF56
:1088A000F0B55F4656464D46444693460322F0B423
:1088B0001E0013008BB003400193CB6C0D001C1DF8
:1088C0001B6808940793002E66D11B02079306AB22
:1088D0005E731A73019B022B00D16EE02B6DDB07D8
:1088E00047D40023A846B2460293083303400393BB
:1088F0002668002E00D126E15346022B49D0268857
:108900006588043401232F0099469F4343469B6C9E
:108910000F219C4658466744FFF758FF00218742C5
:1089200006D831004B469943CF19B84280414142A5
:10893000022301226D002B4032401343012B3ED015
:10894000002B5AD0022B1CD12368019A5F007F08AC
:10895000002A65D1002906D0039A002A00D188E0B8
:10896000002F00D1AAE0002B65DB0137BF00E4191E
:10897000BEE700230293022E47DDFFF70BFE00281F
:1089800049D009200BB03CBC90469946A246AB4664
:10899000F0BD65680834B5E7022E9BDC1A0C1B0499
:1089A0000793022306A90B73FD334A731A40019BF8
:1089B0009200A418022B00D090E7AC6B8EE7019BCD
:1089C000002B3AD1002916D02368DD0F63689A1C6A
:1089D000D7D0424658320692013300D1B5E0201D6F
:1089E000FFF7D0FD06AB01002A00404600E000BFC3
:1089F000002800D0BAE008347AE7019B002B02D0AF
:108A0000002900D08BE0043472E707A9584600F033
:108A1000CFFA0028B5D1029B002B5DD10820B1E729
:108A200043460D2158461D6AFFF7D0FE854263D0AC
:108A30002368002B99DA043497E743460D21584602
:108A40001D6AFFF7C3FE8542D5D143469B6A9C420F
:108A5000D1D145462000FFF7C1FC0F210200584646
:108A6000FFF7DAFE58462A000021FFF7D5FE07205F
:108A700088E7002F22D058235146434406AABA461D
:108A8000251D0026049405911F00914603E004353E
:108A90002600A24514D028000697FFF773FD4B4629
:108AA000010000224046741C00E000BF0028EED008
:108AB0005746059B049C9A46B742B9D1454601E00A
:108AC0004546049C0D215846FFF780FE069B286210
:108AD0006B62AC62062055E70F215846FFF776FE21
:108AE0000E2102005846FFF797FE5846274A0F21ED
:108AF000FFF792FE072045E743469B6A9C4297D1C9
:108B0000434642469F620023D36204331363231D0E
:108B100053632368002B23DB0123029325E7200006
:108B2000FFF75CFC454604340600AC63404600E0B9
:108B300000BF002800D124E7584632000F21FFF77C
:108B40006BFE07201EE7564615E70D2158464546A1
:108B5000FFF73CFE2862069B6B62AC62062011E7C1
:108B60003800013080004546201874E707000D21C9
:108B700058464546FFF72AFE2862022FEBD1069B96
:108B8000EB6243462C336B62E7E7C046000000000F
:108B900010B50023FFF784FE10BDC04610B50123B9
:108BA000FFF77EFE10BDC04610B50223FFF778FE2A
:108BB00010BDC046F0B5474680B40600C2B01400F0
:108BC0001D00012950D0002935D0032909D00429DE
:108BD00002D1002B00D18CE0022042B004BC9046B0
:108BE000F0BD032BF8D11404150C240C2B19102BF9
:108BF000F2D8082203681A4200D0E8E020AF38001B
:108C000000F02EF9B36BE90064009C461A00791855
:108C1000631E002C09D00A006546501A405901C253
:108C2000013BF9D2A40022006244B263380000F094
:108C300015F90020D1E70220002BCED10023012717
:108C40001004B56B000C321D39009940084202D067
:108C500029680435116001330432102BF4D100204F
:108C6000A304BAD4B563B8E71404170C240C012B81
:108C70005ED0052BB0D13B19202BADD80F2F00D8DB
:108C800087E0A046002C70D1002223009046B26BF2
:108C9000002B00DC92E020A88446F9006144DB0050
:108CA000D318891A1068885004329342FAD11A00F6
:108CB0004346002B10D0434658003B1E102B00D2D9
:108CC0001023103BD900002369448000D458CC50B5
:108CD00004338342FAD1D218012D68D0B2630F2F2A
:108CE00071D94346002BA4D0684600F0B3F80020A9
:108CF00073E7102A00D96FE7102203681A424FD198
:108D000020AF380000F0B0F800230120B16B020062
:108D10009A40144203D00D689A00BD5004310133CB
:108D2000042BF4D13800B16300F09CF8002054E724
:108D30003B19102B00D94FE70F2F00D94CE7002328
:108D40009846012233681A420CD0190091430A0058
:108D50003160052D4DD003223000934333604830FD
:108D600000F072F84346002B4BD0042233681A42BD
:108D700034D1012D39D00F2F05D820A800F068F884
:108D80004346002B80D0684600F066F81023DB1BBA
:108D90007DE7102BD3D91022524290469844D0E759
:108DA00093430360D130FF3000F05EF8A8E704324F
:108DB00020A8B26300F046F800200EE74346002BDF
:108DC00000D079E788E720A800F040F889E79343CE
:108DD00003605130FF3000F043F80FE73000934359
:108DE0003360D03000F038F8C3E720A800F02CF84A
:108DF000CCE7022330001A433260483000F028F8F4
:108E0000B0E7012D03D00F2F00D93DE7B5E720A82B
:108E100000F01AF838E7C046011C343138C9043B69
:108E20009C461D60A646011C20313CC990469946CF
:108E3000A246AB46011C0831FCC941680068E54602
:108E400000BDC0467047C0467047C0467047C04628
:108E50007047C0467047C0467047C0467047C0461E
:108E60007047C0467047C0467047C04601B401A86D
:108E700001B585B0FFB408A841464A4653465C4652
:108E800065463EC001A83EC80F98009000230CB470
:108E900001A9FFF711FC109B12B0184701B401A8FB
:108EA00001B585B0FFB408A841464A4653465C4622
:108EB00065463EC001A83EC80F98009000230CB440
:108EC00001A9FFF72DFC109B12B0184701B401A8AF
:108ED00001B585B0FFB408A841464A4653465C46F2
:108EE00065463EC001A83EC80F98009000230CB410
:108EF00001A9FFF739FC109B12B0184701B401A873
:108F000001B585B0FFB408A841464A4653465C46C1
:108F100065463EC001A83EC80F98009000230CB4DF
:108F200001ABFFF7F3FB109B12B0184701B401A887
:108F300001B585B0FFB408A841464A4653465C4691
:108F400065463EC001A83EC80F98009000230CB4AF
:108F500001AAFFF76DFC109B12B01847027A0300BC
:108F6000002A04D1427AB020002A07D17047013A82
:108F70000272006802021A60000EF7E7013A5A72A4
:108F80005A68111D1068032259601A72F2E7C04630
:108F900000B585B003AB00930C2200230021FFF73E
:108FA000FBFB039805B000BD10B5FFF7F1FF10BD46
:108FB000F0B556465F464D4644460023F0B487B0B0
:108FC00003937F339846703B9946083B07000E0099
:108FD0009A463000FFF7C2FF041EB02C00D1C5E056
:108FE000030042469343DBB2002B2AD003004A46DB
:108FF0009343DBB2802B00D17FE0902B41D0A02B9C
:109000004ED0B02B60D0C02B00D190E00300524670
:109010009343DBB2D02B0BD11440802201341203D6
:109020002243052301213800FFF7C4FD0028D0D0DA
:109030000924200007B03CBC90469946A246AB46A6
:10904000F0BDFF2583001D4005AB9B4600930D221C
:109050000023002138000435FFF79EFB63060CD483
:10906000059B9C46654405955B46009300230D22B5
:1090700000213800FFF7B6FBABE7059B5D1B0595AC
:10908000F2E7833B03400D2BD2D04A4605AD0240A8
:109090000095002300213800FFF77EFB0095E5E7EF
:1090A000FF22534612011100834319410A4003076E
:1090B00002D58023DB011A43002300213800FFF78B
:1090C00079FD0028B4D184E7B12863D0B22876D0E6
:1090D000B32800D1A2E0FC230340B42BA8D0534610
:1090E00080221C4001341203224301230121380055
:1090F000FFF760FD00289BD16BE704023000FFF70B
:109100002DFF802520432D02A84291D004010005A7
:10911000020C002300213800FFF74CFD002800D08E
:1091200086E72C4200D154E70123039351E7C62878
:1091300000D17FE0C72800D190E00300524693435E
:10914000DBB2C02B00D19EE0C82800D1A2E0C92824
:1091500000D06DE73000FFF701FFF02302031B038F
:109160001A404B461840013002435AE7039B002443
:10917000002B00D05DE705AD00950E2200213800E0
:10918000FFF70AFB009500230F2200213800FFF7AC
:1091900029FB4EE73000FFF7E1FE021E00D147E752
:1091A000030049468B43DBB2002B00D040E700218F
:1091B0003800FFF7FFFC002800D039E709E705ABCE
:1091C0000D22009300219B4638000023FFF7E4FAAC
:1091D0003000FFF7C3FE424603009343DBB2002B8F
:1091E00065D0B03C43461840059BA0409C46604477
:1091F00005903000FFF7B2FE424603009343DBB216
:109200000734002BEED18122920094464246104052
:10921000A040059B63441818059025E73000FFF730
:109220009DFEF02302031B031A404B4618400130F9
:1092300002435AE73000FFF791FEF02302031B03BD
:109240001A404B46184001300243032303213800E3
:10925000FFF7B0FC002800D0EAE6BAE63000FFF7DE
:109260007DFE021E00D1E3E6030049468B43DBB2DC
:10927000002B00D0DCE604213800FFF79BFC00281F
:1092800000D0D5E6A5E64B46A0221C4001341203CF
:109290002243DAE73000FFF761FE4B4602009A43B3
:1092A000D2B210321840120301300243B9E6022450
:1092B000A9E7C046030000B5DB6C85B05A6808001A
:1092C000120201921A0001A908324A6003220A72AE
:1092D000DB794B72FFF76CFE05B000BD10B5FFF7F0
:1092E00063FE806C10BDC04610B5FFF75DFEC26C1A
:1092F000D3799B000833D01810BDC04610B500F0DC
:1093000005F8C04610B5FFF7F9FFC04610B50620B6
:1093100000F036F8012000F063F8002310B59A42FF
:1093200003D0CC5CC4540133F9E710BD70B5040020
:109330000D1E1F2D04D916230360012040421EE09C
:10934000426C002A04D08B00D2181368002B08D17D
:10935000200000F031F82A000100200000F01AF887
:109360000DE00020012B0AD0591C03D117332360D4
:10937000013004E00024280014609847200070BDEC
:1093800010B5034B01001868FFF7D0FF10BDC046B1
:1093900060200020002370B5064C05000800110075
:1093A000236000F015F8431C03D12368002B00D084
:1093B0002B6070BD8820002010B500F001F810BDB2
:1093C00058220120014B40421A607047882000203B
:1093D00058220120014B40421A607047882000202B
:1093E000FEE7C046F8B5C046F8BC08BC9E467047CC
:1093F000F8B5C046F8BC08BC9E4670471213141559
:089400001643000000200020CB
:1094080030800181B0AB08B10000000074B2018166
:10941800B0AB308000000000800A0181B0B0ABF032
:10942800000000003F010181B0AB10800000000087
:0C94380080060181B0B0ABF00000000025
:1094440030EDFF7F0100000034EEFF7FB8FFFF7FA7
:1094540070EEFF7F0100000034F0FF7FB0A90280AE
:10946400C8F0FF7FB0B0A88018F1FF7F01000000B2
:1094740028F1FF7FB0B0AA805CF1FF7F94FFFF7FEB
:1094840030F2FF7F010000002CF2FF7FAA3F3980F9
:1094940078F2FF7FB0B0A88084F2FF7FB0B0AA80DA
:1094A400C4F2FF7FB0B0A880D8F2FF7F01000000B3
:1094B400D4F2FF7FB0B0A880DCF2FF7F010000008F
:1094C4006CF3FF7FAA0FB280D4F3FF7F50FFFF7FBE
:1094D400BCF6FF7FB0B0A880D8F6FF7F4CFFFF7FBB
:1094E40034F9FF7F01000000A4FAFF7F00840480A8
:1094F400B4FAFF7FB0B0A880B4FAFF7F38FFFF7FD3
:10950400B0FDFF7F00840480D0FDFF7FB0B0A88051
:08951400E8FDFF7F01000000EB
:10951C00000000000000000000000000000000003F
:10952C00000000000000000000000000000000002F
:10953C000194010000000000000000000000000089
:10954C00000000000000000000000000000000000F
:10955C0000000000000000000000000000000000FF
:10956C0000000000000000000000000000000000EF
:0C957C0000200020398101000D81010059
:040000031000830165
:00000001FF
